{
    "contractName": "DVote",
    "abi": [
        {
            "inputs": [],
            "stateMutability": "nonpayable",
            "type": "constructor"
        },
        {
            "anonymous": false,
            "inputs": [
                {
                    "indexed": false,
                    "internalType": "uint256",
                    "name": "electionId",
                    "type": "uint256"
                },
                {
                    "indexed": false,
                    "internalType": "uint256",
                    "name": "candidateId",
                    "type": "uint256"
                },
                {
                    "indexed": false,
                    "internalType": "string",
                    "name": "name",
                    "type": "string"
                }
            ],
            "name": "CandidateAdded",
            "type": "event"
        },
        {
            "anonymous": false,
            "inputs": [
                {
                    "indexed": false,
                    "internalType": "uint256",
                    "name": "electionId",
                    "type": "uint256"
                },
                {
                    "indexed": false,
                    "internalType": "address",
                    "name": "donor",
                    "type": "address"
                },
                {
                    "indexed": false,
                    "internalType": "uint256",
                    "name": "candidateId",
                    "type": "uint256"
                },
                {
                    "indexed": false,
                    "internalType": "uint256",
                    "name": "amount",
                    "type": "uint256"
                }
            ],
            "name": "DonationReceived",
            "type": "event"
        },
        {
            "anonymous": false,
            "inputs": [
                {
                    "indexed": false,
                    "internalType": "uint256",
                    "name": "electionId",
                    "type": "uint256"
                },
                {
                    "indexed": false,
                    "internalType": "string",
                    "name": "name",
                    "type": "string"
                },
                {
                    "indexed": false,
                    "internalType": "uint256",
                    "name": "endTime",
                    "type": "uint256"
                }
            ],
            "name": "ElectionCreated",
            "type": "event"
        },
        {
            "anonymous": false,
            "inputs": [
                {
                    "indexed": false,
                    "internalType": "uint256",
                    "name": "electionId",
                    "type": "uint256"
                },
                {
                    "indexed": false,
                    "internalType": "address",
                    "name": "voter",
                    "type": "address"
                },
                {
                    "indexed": false,
                    "internalType": "uint256",
                    "name": "candidateId",
                    "type": "uint256"
                }
            ],
            "name": "Voted",
            "type": "event"
        },
        {
            "anonymous": false,
            "inputs": [
                {
                    "indexed": false,
                    "internalType": "uint256",
                    "name": "electionId",
                    "type": "uint256"
                },
                {
                    "indexed": false,
                    "internalType": "address",
                    "name": "candidate",
                    "type": "address"
                },
                {
                    "indexed": false,
                    "internalType": "uint256",
                    "name": "amount",
                    "type": "uint256"
                }
            ],
            "name": "Withdrawn",
            "type": "event"
        },
        {
            "inputs": [
                {
                    "internalType": "uint256",
                    "name": "_electionId",
                    "type": "uint256"
                },
                {
                    "internalType": "string",
                    "name": "_name",
                    "type": "string"
                },
                {
                    "internalType": "string",
                    "name": "_description",
                    "type": "string"
                },
                {
                    "internalType": "string",
                    "name": "_imageUrl",
                    "type": "string"
                }
            ],
            "name": "addCandidate",
            "outputs": [],
            "stateMutability": "nonpayable",
            "type": "function"
        },
        {
            "inputs": [],
            "name": "admin",
            "outputs": [
                {
                    "internalType": "address",
                    "name": "",
                    "type": "address"
                }
            ],
            "stateMutability": "view",
            "type": "function"
        },
        {
            "inputs": [
                {
                    "internalType": "string",
                    "name": "_name",
                    "type": "string"
                },
                {
                    "internalType": "uint256",
                    "name": "_duration",
                    "type": "uint256"
                }
            ],
            "name": "createElection",
            "outputs": [],
            "stateMutability": "nonpayable",
            "type": "function"
        },
        {
            "inputs": [
                {
                    "internalType": "uint256",
                    "name": "_electionId",
                    "type": "uint256"
                },
                {
                    "internalType": "uint256",
                    "name": "_candidateId",
                    "type": "uint256"
                }
            ],
            "name": "donate",
            "outputs": [],
            "stateMutability": "payable",
            "type": "function"
        },
        {
            "inputs": [
                {
                    "internalType": "uint256",
                    "name": "",
                    "type": "uint256"
                }
            ],
            "name": "elections",
            "outputs": [
                {
                    "internalType": "uint256",
                    "name": "id",
                    "type": "uint256"
                },
                {
                    "internalType": "string",
                    "name": "name",
                    "type": "string"
                },
                {
                    "internalType": "uint256",
                    "name": "startTime",
                    "type": "uint256"
                },
                {
                    "internalType": "uint256",
                    "name": "endTime",
                    "type": "uint256"
                },
                {
                    "internalType": "uint256",
                    "name": "candidatesCount",
                    "type": "uint256"
                }
            ],
            "stateMutability": "view",
            "type": "function"
        },
        {
            "inputs": [],
            "name": "electionsCount",
            "outputs": [
                {
                    "internalType": "uint256",
                    "name": "",
                    "type": "uint256"
                }
            ],
            "stateMutability": "view",
            "type": "function"
        },
        {
            "inputs": [],
            "name": "getAllElections",
            "outputs": [
                {
                    "internalType": "uint256[]",
                    "name": "",
                    "type": "uint256[]"
                },
                {
                    "internalType": "string[]",
                    "name": "",
                    "type": "string[]"
                },
                {
                    "internalType": "uint256[]",
                    "name": "",
                    "type": "uint256[]"
                },
                {
                    "internalType": "uint256[]",
                    "name": "",
                    "type": "uint256[]"
                }
            ],
            "stateMutability": "view",
            "type": "function"
        },
        {
            "inputs": [
                {
                    "internalType": "uint256",
                    "name": "_electionId",
                    "type": "uint256"
                },
                {
                    "internalType": "uint256",
                    "name": "_candidateId",
                    "type": "uint256"
                }
            ],
            "name": "getCandidateInfo",
            "outputs": [
                {
                    "internalType": "string",
                    "name": "",
                    "type": "string"
                },
                {
                    "internalType": "string",
                    "name": "",
                    "type": "string"
                },
                {
                    "internalType": "string",
                    "name": "",
                    "type": "string"
                },
                {
                    "internalType": "uint256",
                    "name": "",
                    "type": "uint256"
                },
                {
                    "internalType": "uint256",
                    "name": "",
                    "type": "uint256"
                }
            ],
            "stateMutability": "view",
            "type": "function"
        },
        {
            "inputs": [
                {
                    "internalType": "uint256",
                    "name": "_electionId",
                    "type": "uint256"
                }
            ],
            "name": "getCandidates",
            "outputs": [
                {
                    "internalType": "uint256[]",
                    "name": "",
                    "type": "uint256[]"
                },
                {
                    "internalType": "string[]",
                    "name": "",
                    "type": "string[]"
                },
                {
                    "internalType": "string[]",
                    "name": "",
                    "type": "string[]"
                },
                {
                    "internalType": "string[]",
                    "name": "",
                    "type": "string[]"
                },
                {
                    "internalType": "uint256[]",
                    "name": "",
                    "type": "uint256[]"
                },
                {
                    "internalType": "uint256[]",
                    "name": "",
                    "type": "uint256[]"
                }
            ],
            "stateMutability": "view",
            "type": "function"
        },
        {
            "inputs": [
                {
                    "internalType": "uint256",
                    "name": "_electionId",
                    "type": "uint256"
                }
            ],
            "name": "getElectionInfo",
            "outputs": [
                {
                    "internalType": "string",
                    "name": "",
                    "type": "string"
                },
                {
                    "internalType": "uint256",
                    "name": "",
                    "type": "uint256"
                },
                {
                    "internalType": "uint256",
                    "name": "",
                    "type": "uint256"
                }
            ],
            "stateMutability": "view",
            "type": "function"
        },
        {
            "inputs": [
                {
                    "internalType": "uint256",
                    "name": "_electionId",
                    "type": "uint256"
                },
                {
                    "internalType": "uint256",
                    "name": "_candidateId",
                    "type": "uint256"
                }
            ],
            "name": "vote",
            "outputs": [],
            "stateMutability": "nonpayable",
            "type": "function"
        },
        {
            "inputs": [
                {
                    "internalType": "uint256",
                    "name": "_electionId",
                    "type": "uint256"
                },
                {
                    "internalType": "uint256",
                    "name": "_amount",
                    "type": "uint256"
                }
            ],
            "name": "withdraw",
            "outputs": [],
            "stateMutability": "nonpayable",
            "type": "function"
        }
    ],
    "bytecode": "60808060405234610027575f80546001600160a01b031916331790556115a0908161002c8239f35b5f80fdfe60806040526004361015610011575f80fd5b5f3560e01c80630cdd53f614610f925780633e39a7a514610de6578063432cf2ce14610bfe578063441a3e70146109d05780635e6fef011461096157806373a12f5a146108c25780637fd5f2681461079d5780639a74c69514610780578063b384abef1461064c578063ce4a274314610124578063ce99b5df146100c85763f851a4401461009d575f80fd5b346100c4575f3660031901126100c4575f546040516001600160a01b039091168152602090f35b5f80fd5b346100c45760203660031901126100c4576004355f52600260205261011560405f206002810154610100600160038401549301611255565b9160405193849360608552606085019061110b565b91602084015260408301520390f35b346100c45760803660031901126100c45760243567ffffffffffffffff81116100c4576101559036906004016111c7565b60443567ffffffffffffffff81116100c4576101759036906004016111c7565b9060643567ffffffffffffffff81116100c4576101969036906004016111c7565b916101ab60018060a01b035f541633146114a8565b6004355f52600260205260405f20926101c76004850154611472565b908160048601556040519260e0840184811067ffffffffffffffff8211176104a657604052828452846020850152604084015260608301525f60808301525f60a08301523360c08301525f526005830160205260405f2081518155602082015180519067ffffffffffffffff82116104a6578190610248600185015461121d565b601f81116105fc575b50602090601f831160011461058e575f92610583575b50508160011b915f199060031b1c19161760018201555b604082015180519067ffffffffffffffff82116104a65781906102a4600285015461121d565b601f8111610533575b50602090601f83116001146104c5575f926104ba575b50508160011b915f199060031b1c19161760028201555b606082015180519067ffffffffffffffff82116104a6576102fe600384015461121d565b601f8111610462575b50602090601f83116001146103ce579282600495936006937fed8911b3df733b7d5f75724158e54478ea12e30f49c9d31b5261879f5b76586f99965f926103c3575b50508160011b915f199060031b1c19161760038201555b60808301518582015560a08301516005820155019060c060018060a01b03910151166bffffffffffffffffffffffff60a01b82541617905501546103be6040519283926004358452602084015260606040840152606083019061110b565b0390a1005b015190508980610349565b90600384015f5260205f20915f5b601f198516811061044a5750836006937fed8911b3df733b7d5f75724158e54478ea12e30f49c9d31b5261879f5b76586f99969360019360049997601f19811610610432575b505050811b016003820155610360565b01515f1960f88460031b161c19169055898080610422565b919260206001819286850151815501940192016103dc565b600384015f5260205f20601f840160051c81016020851061049f575b601f830160051c82018110610494575050610307565b5f815560010161047e565b508061047e565b634e487b7160e01b5f52604160045260245ffd5b0151905086806102c3565b9250600284015f5260205f20905f935b601f1984168510610518576001945083601f19811610610500575b505050811b0160028201556102da565b01515f1960f88460031b161c191690558680806104f0565b818101518355602094850194600190930192909101906104d5565b909150600284015f5260205f20601f840160051c81016020851061057c575b90849392915b601f830160051c8201811061056e5750506102ad565b5f8155859450600101610558565b5080610552565b015190508680610267565b9250600184015f5260205f20905f935b601f19841685106105e1576001945083601f198116106105c9575b505050811b01600182015561027e565b01515f1960f88460031b161c191690558680806105b9565b8181015183556020948501946001909301929091019061059e565b909150600184015f5260205f20601f840160051c810160208510610645575b90849392915b601f830160051c82018110610637575050610251565b5f8155859450600101610621565b508061061b565b346100c45761065a366110c2565b815f5260209160028352610677600260405f2001544210156112f7565b805f5260028352610691600360405f200154421115611343565b805f526002835260405f2060068101335f5280855260ff60405f205416610742577f1abe610cf2bf87e57dcc1181fcf5ac0934e843d8344ab9eed6e86c799f62585e949160059185151580610734575b6106ea9061138f565b335f52835260405f20600160ff19825416179055845f52019052600460405f20016107158154611472565b90556040805191825233602083015281019190915280606081016103be565b5060048201548611156106e1565b60405162461bcd60e51b81526004810186905260166024820152751e5bdd481a185d9948185b1c9958591e481d9bdd195960521b6044820152606490fd5b346100c4575f3660031901126100c4576020600154604051908152f35b346100c4575f3660031901126100c45760018054906107bb826113f7565b906107c583611429565b6107ce846113f7565b936107d8816113f7565b9260015b828111156108365761080886610832876108248b6108168a6040519788976080895260808901906110d8565b908782036020890152611149565b9085820360408701526110d8565b9083820360608501526110d8565b0390f35b805f526002908160205260405f209182545f198301918383116108ae576108a9948b6108998560039461088f8f8e61087f8e6108a39b610877888096611480565b528901611255565b6108898383611480565b52611480565b5084015492611480565b5201549188611480565b52611472565b6107dc565b634e487b7160e01b5f52601160045260245ffd5b346100c4576108d0366110c2565b905f526002602052600560405f2001905f5260205261093660405f206004810154600582015461095261090560018501611255565b93610944610921600361091a60028501611255565b9301611255565b9160405197889760a0895260a089019061110b565b90878203602089015261110b565b90858203604087015261110b565b91606084015260808301520390f35b346100c45760203660031901126100c4576004355f52600260205260405f20805461098e60018301611255565b9160028101549060046003820154910154906109bc604051958695865260a0602087015260a086019061110b565b926040850152606084015260808301520390f35b346100c4576109de366110c2565b815f52602060028152600360405f200154421115610bba57825f526002815260405f2090610a0c3385611502565b8015610b75576005830192815f5283835284600560405f20015410610b3957600701335f52808352610a428560405f20546113d2565b825f52848452600560405f20015410610afc57815f52838352600560405f20018054908682039182116108ae5755335f52825260405f20610a848582546113d2565b90555f52525f8080808460018060a01b03600660408420015416828215610af3575bf115610ae857604080519283523360208401528201527fcf7d23a3cbe4e8b36ff82fd1b05b1b17373dc7804b4ebbd6e2356716ef2023729080606081016103be565b6040513d5f823e3d90fd5b506108fc610aa6565b60405162461bcd60e51b81526004810184905260156024820152741bdd995c881dda5d1a191c985dd85b081b1a5b5a5d605a1b6044820152606490fd5b60405162461bcd60e51b8152600481018490526014602482015273696e73756666696369656e742062616c616e636560601b6044820152606490fd5b60405162461bcd60e51b815260048101839052601760248201527f796f7520617265206e6f7420612063616e6469646174650000000000000000006044820152606490fd5b6064906040519062461bcd60e51b82526004820152601960248201527f656c656374696f6e206973206e6f7420656e64656420796574000000000000006044820152fd5b346100c45760403660031901126100c45767ffffffffffffffff6004358181116100c457610c309036906004016111c7565b90610c4560018060a01b035f541633146114a8565b600191610c528354611472565b808455805f526020926002845260405f209182558482019083519081116104a657610c7d825461121d565b601f8111610da0575b5084601f8211600114610d1c5792610d0692827f43131521170c5b80ffe9526cfec987f5a24eb1f6c4bda47c41a5e4b8388afe5c98936003965f91610d11575b505f1982881b1c191690841b1790555b426002820155610ce8602435426113d2565b9384910155549260606040519586958652850152606084019061110b565b9060408301520390a1005b90508701518a610cc6565b601f19821690835f52865f20915f5b818110610d8b5750978360039693610d06969383967f43131521170c5b80ffe9526cfec987f5a24eb1f6c4bda47c41a5e4b8388afe5c9c10610d74575b5050811b019055610cd6565b8901515f19838a1b60f8161c191690558a80610d68565b87830151845592890192918801918801610d2b565b825f52855f20601f830160051c810191878410610ddc575b601f0160051c019087905b828110610dd1575050610c86565b5f8155018790610dc3565b9091508190610db8565b346100c45760203660031901126100c4576004355f52600260205260405f20600481015490610e14826113f7565b90610e1e83611429565b92610e2881611429565b610e3182611429565b94610e3b836113f7565b92610e45816113f7565b9460015b82811115610ec357610e7d8861083289610eb58a610ea78f610e998d610e8b8e6040519b8c9b60c08d5260c08d01906110d8565b908b820360208d0152611149565b9089820360408b0152611149565b908782036060890152611149565b9085820360808701526110d8565b9083820360a08501526110d8565b805f526005820160205260405f20908154815f198101116108ae57610f8d92600591610ef25f1985018d611480565b52610eff60018201611255565b610f0c5f19850189611480565b52610f1a5f19840188611480565b50610f2760028201611255565b610f345f1985018a611480565b52610f425f19840189611480565b50610f4f60038201611255565b610f5c5f1985018e611480565b52610f6a5f1984018d611480565b506004810154610f7d5f1985018b611480565b5201546108a35f1983018a611480565b610e49565b610f9b366110c2565b90805f5260209060028252610fb9600260405f2001544210156112f7565b805f5260028252610fd3600360405f200154421115611343565b805f526002825260405f20831515806110b4575b610ff09061138f565b341561105e57600590845f52018252600560405f20016110113482546113d2565b90555f808080343082f115610ae8577f3dbea1b4ce5f95137fdcac9b1d685825c3d70ace830df1ca5a181d3887add4109260809260405192835233908301526040820152346060820152a1005b60405162461bcd60e51b815260048101849052602860248201527f646f6e6174696f6e20616d6f756e742073686f756c6420626520677265617465604482015267072207468616e20360c41b6064820152608490fd5b506004810154841115610fe7565b60409060031901126100c4576004359060243590565b9081518082526020808093019301915f5b8281106110f7575050505090565b8351855293810193928101926001016110e9565b91908251928382525f5b848110611135575050825f602080949584010152601f8019910116010190565b602081830181015184830182015201611115565b90808251908181526020809101926020808460051b8301019501935f915b8483106111775750505050505090565b9091929394958480611195600193601f198682030187528a5161110b565b9801930193019194939290611167565b90601f8019910116810190811067ffffffffffffffff8211176104a657604052565b81601f820112156100c45780359067ffffffffffffffff82116104a657604051926111fc601f8401601f1916602001856111a5565b828452602083830101116100c457815f926020809301838601378301015290565b90600182811c9216801561124b575b602083101461123757565b634e487b7160e01b5f52602260045260245ffd5b91607f169161122c565b9060405191825f82546112678161121d565b908184526020946001916001811690815f146112d55750600114611297575b505050611295925003836111a5565b565b5f90815285812095935091905b8183106112bd57505061129593508201015f8080611286565b855488840185015294850194879450918301916112a4565b9250505061129594925060ff191682840152151560051b8201015f8080611286565b156112fe57565b60405162461bcd60e51b815260206004820152601b60248201527f656c656374696f6e206973206e6f7420737461727465642079657400000000006044820152606490fd5b1561134a57565b60405162461bcd60e51b815260206004820152601960248201527f656c656374696f6e20697320616c726561647920656e646564000000000000006044820152606490fd5b1561139657565b60405162461bcd60e51b81526020600482015260146024820152731a5b9d985b1a590818d85b991a59185d19481a5960621b6044820152606490fd5b919082018092116108ae57565b67ffffffffffffffff81116104a65760051b60200190565b90611401826113df565b61140e60405191826111a5565b828152809261141f601f19916113df565b0190602036910137565b90611433826113df565b61144060405191826111a5565b8281528092611451601f19916113df565b01905f5b82811061146157505050565b806060602080938501015201611455565b5f1981146108ae5760010190565b80518210156114945760209160051b010190565b634e487b7160e01b5f52603260045260245ffd5b156114af57565b60405162461bcd60e51b815260206004820152602560248201527f4f6e6c792061646d696e2063616e20657865637574652074686973206f70657260448201526430ba34b7b760d91b6064820152608490fd5b5f52602090600260205260409160405f20926001600560048601549501905b85811115611533575050505050505f90565b5f818152828552839020600601546001600160a01b038681169116146115615761155c90611472565b611521565b9450505050509056fea2646970667358221220834a455e3d97099e9ac5a18b5c20e7ee57aa636ed139578cf719158b4080e31764736f6c63430008180033",
    "sourcePath": "d:/web3/DVote/DVote/contract/contracts/DVote.sol",
    "compiler": {
        "name": "solc",
        "version": "0.8.24+commit.e11b9ed9"
    },
    "functionHashes": {
        "addCandidate(uint256,string,string,string)": "ce4a2743",
        "admin()": "f851a440",
        "createElection(string,uint256)": "432cf2ce",
        "donate(uint256,uint256)": "0cdd53f6",
        "elections(uint256)": "5e6fef01",
        "electionsCount()": "9a74c695",
        "getAllElections()": "7fd5f268",
        "getCandidateInfo(uint256,uint256)": "73a12f5a",
        "getCandidates(uint256)": "3e39a7a5",
        "getElectionInfo(uint256)": "ce99b5df",
        "vote(uint256,uint256)": "b384abef",
        "withdraw(uint256,uint256)": "441a3e70"
    },
    "gasEstimates": {
        "creation": {
            "codeDepositCost": "1107200",
            "executionCost": "25390",
            "totalCost": "1132590"
        },
        "external": {
            "addCandidate(uint256,string,string,string)": "infinite",
            "admin()": "2510",
            "createElection(string,uint256)": "infinite",
            "donate(uint256,uint256)": "infinite",
            "elections(uint256)": "infinite",
            "electionsCount()": "2402",
            "getAllElections()": "infinite",
            "getCandidateInfo(uint256,uint256)": "infinite",
            "getCandidates(uint256)": "infinite",
            "getElectionInfo(uint256)": "infinite",
            "vote(uint256,uint256)": "59480",
            "withdraw(uint256,uint256)": "infinite"
        },
        "internal": {
            "getCandidateIdByAddress(uint256,address)": "infinite"
        }
    }
}